:040000006F10507BB2
:1000040000000000000000000A0A00000A0A0000C4
:10001400000000000A0A00000000000000000000C8
:100024000A0A00000A0A00000000000000000000A4
:100034000A0A0000000000000A0A00000000000094
:100044000A0A00000A0A00000A0A00000000000070
:100054000A0A00000A0A00000A0A00000A0A00004C
:100064000A0A00000A0A00000A0A00000A0A00003C
:100074000A0A00000A0A00000A0A00000A0A00002C
:100084000A0A00000A0A00000A0A00000A0A00001C
:100094000A0A00000A0A00000A0A00000A0A00000C
:1000A4000A0A00000A0A00000A0A00000A0A0000FC
:1000B4000A0A00000A0A00000A0A00000A0A0000EC
:1000C4000A0A0000200F00000A0A00000A0A0000C1
:0C00D4000A0A00000A0A00000A0A0000E4
:1000E0008347050091CB8347150003452500220572
:1000F0005D8D42054185828021657D15828041119B
:1001000022C43704002026C206C64AC0AA841304AB
:10011000041F0349040063190900B24022852244E8
:10012000924402494101828022855D3FE35795FE5A
:100130004A94C5B7011122CC06CE26CA4AC84EC67B
:100140009D2483C7C1807D54BDE309692A849549F4
:100150001309890403A7818083470700A11793F738
:10016000F70F63E6F9048A07CA97944393071700C9
:1001700023A4F1808286052C098C13341400D9BF86
:100180001D24098C33348000F1B7312C3324A400B2
:10019000D1B7112C332485001344140065BF2124EA
:1001A0003324850045BF01243324A400F5B7F24071
:1001B00022856244D2444249B2490561828041119C
:1001C00022C483A7818026C206C683C6070059477A
:1001D000638BE600C5472386F1800145B240224487
:1001E000924441018280850723A4F180A13783C70F
:1001F000C180E5F783A781805D4783C60700E39B45
:10020000E6FC850723A4F180D1BF03A681804111BC
:1002100022C406C60145050681450544D5488346E6
:10022000F6FF9307F6FFB91693F6F60F63E3D810BF
:1002300009688A0613080806C2969442828603C596
:10024000270083C617008D072205558D420541857D
:1002500023A4F1803305A402B240224441014205A7
:1002600041858280330480404204418405068545EF
:100270007DB79386270023A4D18083C61700938778
:10028000C19B8606B69703950700E9B799C123A4D9
:10029000F1803537C1B7850723A4F1800D3703C737
:1002A000C1804DFB1307F0036356A7000D4723865B
:1002B000E1804DB706059387C1933E950315050070
:1002C00051BF850723A4F180DD3D83C7C180D9F3E9
:1002D000054549B7850723A4F180D53583C7C1807B
:1002E000B5FBE35905F63305A040420541859DB7AE
:1002F00003C617009386170023A4D180D94663173D
:10030000D60003C62700DD466304D600454745B73F
:100310008D0723A4F180B70700209387071F03C729
:10032000070011E7138501DF1D8D7D157DBFBA978D
:10033000FDB799C123A4F180514795BF01114AC867
:1003400006CE22CC26CA4EC652C4C13583C7C18050
:10035000B1E72A84D149554A83A7818003C70700A2
:10036000630D370163044703F24022856244D2449F
:100370004249B249224A05618280850723A4F1805F
:1003800069353304A40242044184F9B7850723A4E4
:10039000F180A53D11E585472386F1807D54E9B7BD
:1003A0003344A402CDB7011122CC06CE26CA4AC8D6
:1003B0004EC6693783C7C1807D5495EB2A8449496D
:1003C000CD4983A7818003C70700630C2701631011
:1003D0003703850723A4F18095372A94420441848A
:1003E000CDB7850723A4F180913F098CC5BFF240AA
:1003F00022856244D2444249B2490561828083A782
:100400008180411126C206C622C403C61700938606
:10041000170023A4D180ED4603C40700630AD60069
:10042000C9472386F180B240224492444101828030
:10043000890723A4F180FD3983C7C180EDF7060445
:100440009387C19BA2972390A700F1BF411126C2B9
:1004500006C622C4AD3383C7C18089EB9307F0037E
:100460002A8463DAA7008D472386F180B2402244B4
:1004700092444101828083A78180ED4603C6070034
:100480006304D600C947CDB7850723A4F1805D3149
:1004900083C7C180E1FF06049387C193A29723908D
:1004A000A700E9B79387C19B1387470323900700F1
:1004B0008907E39DE7FE9387C1931387070823907D
:1004C00007008907E39DE7FEB7070020A380070028
:1004D000B707002023800700B70700209387071F76
:1004E00037070020238007002322F7008280374748
:1004F00000408357074093F70708E5DF2312A74022
:1005000082803545EDB7411122C406C62A840345D1
:10051000040009E5B2402244410182800504C13F44
:10052000FDB7011126CA06CE22CC4AC84EC6AE84FB
:100530008146635705003305A04042054185854645
:10054000938701DF238307001944138901DF2946BC
:10055000A5453367C502A2877D141374F40F3308D1
:100560008900130707032300E8002A873345C502E3
:10057000E3C1E5FE91CAF91713F4F70FB307890039
:100580001307D0022380E7009949B389894039A035
:10059000FD1413050002C204993FC184E3CA99FE09
:1005A000330589006244F240D2444249B2490561B0
:1005B00099BF797126D24AD0B744004022D44ECE9A
:1005C00052CC56CA5AC806D65EC60144938404402B
:1005D000B549214A930AF007138901DF154B83D7E8
:1005E000040093F70702E5DF03D544001375F50F08
:1005F000631335073937138701DF3A94230004006A
:10060000034707001306B002938601DF630FC70894
:100610009307D002630EF708014681470148014560
:10062000A9483387F6000347070049E76305080038
:1006300009472386E18009C63305A040420541856C
:10064000B250225492540259F249624AD24A424B61
:10065000B24B45618280631E450151D02145413D29
:100660001305000269357D1421451374F40F4135DB
:10067000BDB7E30455FF1DE4930755FD93F7D70F6E
:1006800081CB930705FD93F7F70F2547E369F7F44F
:10069000930B140093FBFB0F4A942300A400813DAD
:1006A0005E8435BFE36D8BF2E9BF01468547BDB778
:1006B0000546EDBFB3051503850793F7F70F93853F
:1006C00005FD2E97420741876353A70005483A85E9
:1006D00089BF797126D24AD04ECE89640969896969
:1006E00022D406D652CC56CA5AC85EC62A849384EF
:1006F000C44A1309094D9389C94B83470400130762
:1007000090026387E704130750026368F7068A07BD
:10071000CA978843CD3B83460400CD471307F00FAB
:10072000FD1793F7F70F6396E70013050002C13337
:1007300039A03386370103460600E313D6FE03478C
:100740000400A1476319F70283441400090481ECF3
:10075000B250225492540259F249624AD24A424B50
:10076000B24B4561828003450400FD14050441330A
:1007700093F4F40FE9BF050449B7130760026392CD
:10078000E7040345240083471400814522055D8D5D
:1007900042054185793383463400BD471307F00F86
:1007A000FD1793F7F70F6396E700130500028133F7
:1007B00039A03386970003460600E313D6FE0D04E6
:1007C0002DBF13077002639FE70203451400130552
:1007D00015041375F50F213B83462400BD4713070D
:1007E000F00FFD1793F7F70F6396E700130500026C
:1007F000FD3939A03386970003460600E313D6FE81
:100800000904E5BD130780026392E70683471400DD
:1008100013072002A297631BF402930A2002568555
:10082000930B2400E931034414005E8B228A631782
:100830000A0256856D395E940347040093077002DF
:10084000E31DF7EA130500025D3145BD83C61700BD
:10085000FD17E392E6FC930A7002D1B703450B0043
:100860007D1A050B6931137AFA0FD1B755472386E4
:10087000E180F9BD411122C483C7C18006C626C2EA
:10088000A1C703A78180B70700209387071F636F65
:10089000F704938701DF637BF704B707002083A485
:1008A000470083C70400B9C3A93909651305850B3F
:1008B00099392685EFF0DF828145A53113050002C5
:1008C0003D311385340031352D3903C7C180896727
:1008D0009387C7440A07BA97884335311D31B24020
:1008E000238601802244924441018280193909659E
:1008F0001305050C0939138501DF3131F1B7814842
:1009000063DC0500B305B040E205E18563560500F0
:100910003305A0409308D002130800026358060074
:100920003306C0406206618613080003D147814642
:10093000254E63DCC70A8280BE86B377B50213F703
:10094000F70F6378FE08130777033355B502138456
:1009500006021377F70F330324009387160023064C
:10096000E3FE93F7F70F69F96380080213070003AA
:10097000630CE800938707028A9789061307D00261
:100980002386E7FE93F7F60F3E8763C7C7046380AD
:10099000080293060003631CD800130707028507AB
:1009A0000A979306D00293F7F70F2306D7FE138416
:1009B000F7FF64001374F40F269403450400053E0A
:1009C000A2877D14E39BF4FEB250225492544561F9
:1009D00082801307070395BF1307070285070A974D
:1009E00093F7F70F230607FF45B7797106D622D490
:1009F00026D2A1B7B7F700E09C4737F700E03E9555
:100A00001C47898FE3CE07FE828001A0B7770240A2
:100A10001307200A2396E7002397E7009387018CAA
:100A2000A38407002385070023840700238A070087
:100A3000A38A070023A0070023A207001387C1820F
:100A400023810702D8C7A381070213870184238269
:100A5000070298CB0547238BE70023800702238DED
:100A6000E700A38DE700056713078738239EE7009B
:100A7000239FE7008280B777024003D70700118BDE
:100A800015CB03D7E700136707012397E700B77774
:100A900002401307F0042391E700A3820700239389
:100AA000A700A384070003C747001367370023820A
:100AB000E700828003D7C700136707012396E7008A
:100AC000F9B7797122D426D24AD04ECE52CC56CA2A
:100AD0005AC85EC69387018C06D662C466C2239F3D
:100AE000070009698569A16A238007029304F00F52
:100AF0001384018C1309C90C938BF9E1938AFAE1F1
:100B0000138BC1898347040293FCF70F89E7FD1417
:100B100093F4F40F85E0B25022540259F249624A2C
:100B2000D24A424BB24B224C924C333590009254F5
:100B30004561828037B5030013050598653DB77799
:100B4000024003D7C700420741831377E7F142070A
:100B500041832396E70003D7C70013670704239652
:100B6000E70003D7C7009316070103D7E700C18248
:100B7000420741831377E7F1420741832397E70058
:100B800003D7E700136707042397E70003D7E700BD
:100B9000058B39C303578401050742074183231C92
:100BA000E400144005476395E60CA30404000347E2
:100BB000A40005071377F70F2305E4000346A400FC
:100BC00015476374C70623050400094718C003D7F7
:100BD00007001367470081A813F7160083568401A6
:100BE00005468506C206C182231CD40014406395C5
:100BF000C60831C323050400034794000507137793
:100C0000F70FA304E400034694001547637FC70071
:100C1000A3040400094718C003D707004207418313
:100C20006D9B420741832390E7001C4063F8F60266
:100C30002304040025A0A3040400230504001C4091
:100C400063FEF60083478400850793F7F70F2304BC
:100C5000F40003478400954763E5E702032C040092
:100C60001C402547636EF7068A07CA979C43828714
:100C70001C40E36FF7FADDB71C40E371F6FE79D351
:100C800045BF2304040023200400B7E700E0370732
:100C9000020023A2E718D9B7B7E700E03707020040
:100CA00023A2E718A53385471CC01DA858401C4047
:100CB0006308F70237770240930770072311F700A4
:100CC0008347470093F7C70F93E727002302F700F6
:100CD000B7E700E0A38807423707020023A2E71026
:100CE0002322840105B583473402FDDBA3010402FE
:100CF000B7E700E0370702008328C400144823A2A6
:100D0000E71837060020A30A04001306060137037C
:100D100000F0370E00C0A94E1305200399451308B3
:100D200040068347440163EAFC00B7E700E0370769
:100D3000020023A2E710914785BF13972C00B30749
:100D4000C7009C4333FF67006312CF07034754017A
:100D500013DF1701137FFF0F3307B702330F0F03A2
:100D600036972311E7010347540113DF8700137FF0
:100D7000FF0F3307B70293F7F707330F0F033697C9
:100D80002310E70103475401B387A7023307B702D3
:100D900036972312F70083475401850793F7F70F1F
:100DA000A30AF400850C93FCFC0FA5BF13FFF73FCB
:100DB000A98393F7F73F330FDF034697B387A70263
:100DC0002310E7012311F700F1BF58401C406301D5
:100DD000F70A0345A401834724021387290093756A
:100DE000F50F9D8BA607D98F03476401B3F7570111
:100DF00093F7F7F30D8B1A07B3E6E7008347440137
:100E0000034754011316C501998F63DBA706835767
:100E1000C4015147B3D7E7021387F9FFF98F03479E
:100E2000540103454401A6072E97098F7D17994564
:100E30003307B702D18F13860184329703574700D7
:100E4000130620033357C702370600031377F7074B
:100E5000518F370600FD130606F8F18FD98F231145
:100E6000FB001945C183239ED1882312FB00213149
:100E700083474402E38607E62302040295472DB523
:100E80009387F5FF1387C1828A07BA9703D70700B4
:100E9000A947B70500033357F7021377F73F9317B6
:100EA000A7004D8FD98FD18F5DBF83473402E3896F
:100EB00007E2A3010402A5471CC0231C04000DB5D2
:100EC00085472300F4020347A4018347B401631854
:100ED000F7000357C4018357E401E303F7E08347B6
:100EE000A401094593F7F70FA30DF4008357C4013C
:100EF000C207C183231FF400230004028347240296
:100F0000034764019D8BA60793E777000D8B1A07B3
:100F1000B3F77701D98F239EF188B13EA94769B312
:100F20005D713AD2377702403ED08347970086C63C
:100F300096C49AC29EC022DE26DC2ADA2ED832D689
:100F400036D442CE46CC4ACA72C876C67AC47EC26D
:100F500093F70702A5C78347970085468D8B639754
:100F6000D7048356A70015476372D70403D4C189F9
:100F70009384018C1317040141876349070E9D6612
:100F8000E18E1377F401639C06108D46630ED70C37
:100F900099466304D710631BF70C2382E40283C7CE
:100FA0002402850793F7F70F2381F4023777024075
:100FB0008347970093E70702A304F700B77702403F
:100FC00003C7970062076187635B070403D7C70005
:100FD0008546420741833D9B420741832396E700B4
:100FE00003D7E700420741833D9B42074183239794
:100FF000E700130770072391E70003C74700137743
:10100000C70F136727002382E7001387018CA30112
:10101000D70203C7970013670708A384E700B777D1
:10102000024003C797001377070409CB03C7970053
:1010300013670704A384E700EFF05F9D7254B64086
:10104000A64216438643E2545255C2553256A25622
:10105000125782577248E2485249424EB24E224FCE
:10106000924F6161730020309D479CC01305005A68
:10107000EFF05F98A381040203C7640193579400C3
:101080009D8BA6070D8B1A0793E71700D98F09458B
:10109000239EF188EFF03F9E11BFA147F9B7E317F8
:1010A000F7FC8D479CC09357C4009D8B238AF400A6
:1010B000935764008D8BB7060020238BF4001387B1
:1010C000C189814793860601714603452700B38590
:1010D000D70085072380A5000507E398C7FE79B7E9
:1010E0001D7122DC26DA0964C4004ED652D456D2D1
:1010F0005AD05ECE62CC06DE4AD8AEC2B2C4B6C604
:10110000BAC8BECAC2CCC6CE26C61304440F9309C1
:101110005002930A0003254BA94B130C3007130A06
:1011200040060345040009EDF2506254D25442597E
:10113000B259225A925A025BF24B624C256182806C
:10114000630735010504EFF08FBA2689B9A88347F4
:10115000140013072400639A370113055002EFF0BF
:101160000FB9834724001307340081466396570163
:1011700083470700854605073A84014601A8B3075F
:1011800076030504BA973E968347F4FF138707FD5D
:10119000E377EBFE99C23306C040639E8701138953
:1011A0004400844003C5040019E1CA849DBF85043E
:1011B000EFF0EFB3C5BF63844705634DFA00130733
:1011C00020066387E704130730066383E702A9DF7D
:1011D0007D14A5BF13075007638EE702130780072E
:1011E000C145E397E7FE620613894400618629A89A
:1011F00003C5040013894400EFF06FAF7DB76206AA
:10120000138944006186D9558840EFF04FEF71BFD4
:101210008945D1BFA945C1BF5D71B74749009387D3
:1012200007E056DAB77ADC0252DC3EC4096A9387DB
:101230000AC0A2C486C6A6C2CAC04EDE5AD85ED6AE
:1012400062D466D26AD06ECE130A0A103EC683A755
:1012500081809306900203C70700631AD700B7077F
:10126000002003A54700834705003E952DA0930667
:10127000700263E4E6540A07529718430287B707DF
:10128000002003A54700014783460500639B062E07
:1012900019C323A2A700B640264496440649F25932
:1012A000625AD25A425BB25B225C925C025DF24DA2
:1012B00061618280850723A4F180EFE0BFE783C7E7
:1012C000C1802A899DE3EFE09FE3AA84EFE05FE11C
:1012D0006306250141472386E18001A8B707002066
:1012E00023A297008D0423A4918083C7C180A5D336
:1012F000014555B7850723A4F180EFE0BFE383C71D
:10130000C1802A89FDF3EFE09FDFAA84EFE05FDD73
:10131000E31225FDB705002083C715000D4763764E
:10132000F70099472386F180C9B7370600200325C7
:1013300046001387419293962700BA9688C29386F7
:101340002700850793F7F70F8A073E9783A78180C9
:10135000A380D500232296001CC369B7370600205E
:101360008347160005476364F7001D47ADB7138731
:10137000F7FF1377F70F938641920A0736971843C2
:10138000F91793F7F70FA300F6008A0723A4E1806B
:10139000BE969842B707002023A2E700B9B783C6DC
:1013A00017001387270023A4E180130770026384CA
:1013B000E600B14785BF83C42700EFF04F8483C7A1
:1013C000C18085F783A78180114783C60700639F8B
:1013D000E602850723A4F180EFE0DFD583A78180B3
:1013E00015472A8983C6070005466394E6028507E8
:1013F00023A4F180EFE01FD42A86635B0500E17728
:101400008507898F635CF900894729BFB54719BFF4
:1014100011C5A167FD17918FE3C827FFB70500200D
:1014200083C7050025476374F700A147E5BD37056D
:101430000020032545001387818E93962700BA96D6
:1014400088C29386170003A5818093F6F60F8A065B
:10145000BA9688C29386270093F6F60F8A06BA9644
:1014600023A026019386370093F6F60F8A06BA96D4
:1014700090C293865700910793F7F70F8A073E971C
:101480002380D50004C395B51387170037080020C3
:1014900023A4E18003470800914663E6E600A547E0
:1014A0002386F18099B51305F7FF9385818E0A0590
:1014B000AA9583C8170088419385270023A4B1808B
:1014C000930570029386818E6384B800A947C9BFD3
:1014D0009385370023A4B18083C527004205418549
:1014E000AD47E39FA5FA9307E7FF86058A071386B2
:1014F000C19B2E96B69783A80700835706001395C5
:101500000801C697C207C1872310F6001306D7FF4C
:101510000A0636964185831506001306B7FF635EFB
:10152000050063CFB7009307C7FF8A07B6979C43B0
:101530000A06B29623A4F180A9BD75D5E3D5F5FEC0
:101540002300C8005DB3850723A4F180EFE09FBEB0
:1015500003C7C18019C33D47BDBBE31805D883A7A6
:101560008180014713069002BE8683C50700850768
:101570006397C500E30B07D623A4D180BDB305470D
:10158000E5B73695054709B3850723A4F180EFE059
:101590001FE7A1BB850723A4F180EFE03FEBB1B3C8
:1015A0001387170023A4E18003C71700F9466308D7
:1015B000D700930670026316D7008907F9B7890729
:1015C000D9BF394709BB850723A4F180EFE09FB657
:1015D00093140501B70B0001F97CC180154BB719B5
:1015E0000240FD1B377C02401389C189A10C896D23
:1015F000138D018C83A78901B706020037060044CA
:1016000093E7170123ACF90083A74901D58FB716DB
:10161000014023AAF900938606C0DC42B3F77701A4
:10162000D18FDCC2B70601409C4E93E707309CCEB9
:1016300023182C0123109C01F157A304FC00EFF0A8
:101640004FC845C183475D01C9CF03464D0183475C
:101650005D0103250D018325CD001D8E1376F60F48
:101660008147194883464D0163E9D7022245B717E0
:101670000140856623A8D7C0938A07C0EFF08FB7D3
:101680003245856623AADA007D1BEFF0AFB6E3137F
:101690000BF6DD472386F18089B99386170063F343
:1016A000C7028A07AE9783D727006399970293F6FC
:1016B000F60F230DDD00231E9D00EFF08FC05DD5DA
:1016C0008147C9BF918FB3870703AA9783D80700C3
:1016D00063E6140183D72700E3FB97FC93F7F60F2B
:1016E00051B713854D0FEFF0BF9F49B7850723A46E
:1016F000F180EFE03FA4B7170140938707C005676B
:1017000019E1D8CBDDB698CBCDB6850723A4F180FF
:101710008144C54913099002E54B130C8002C14C6A
:1017200083A7818003C7070063043701631527017E
:10173000EFE03FDD5DBE630A77056312870783CD67
:1017400017001387270023A4E18083A7818003C5A6
:10175000070063930D0203A7818083470700639A04
:1017600097059307170023A4F18083471700E38EA2
:1017700037B7E39727FB95BE8507FD1D23A4F180AE
:1017800093FDFD0FEFE0BFD6C9B7850723A4F18015
:10179000EFE05F9A83C7C180AA84D5DFB9B6EFE0D6
:1017A0007F9983C7C180E39207B4A685EFE07FD716
:1017B0005DB7E38737F7E38527F7514729BE8507EC
:1017C00093098002794B930B700203C7070023A48F
:1017D000F1808544631D370183C4170013872700F8
:1017E00023A4E18083A7818003C50700A5EC03AC97
:1017F000818083470C0063806709E39077FD93073E
:101800001C0023A4F18089CC03451C00130515049A
:101810001375F50FEFE0BFCD1305A003EFE03FCD4B
:10182000EFE03FD983C7C180E39107AC03471C00B9
:1018300093072C0023A4F18006079387C19BBA97D6
:101840002390A70083A78180C54603C70700E30E46
:10185000D7A893069002E30AD7A8C146E31FD7F49E
:101860008507A5B78507FD1423A4F18093F4F40F31
:10187000EFE0FFC785BF050C23A48181EFE03F9413
:1018800083C7C1802A8CE39207A69307F00363D62F
:10189000A7008D472386F18089BC99CC0965130583
:1018A000850FEFE05FC662858145EFE09FC7096560
:1018B0001305C50FEFE03FC5EFE0BFCF83C7C18081
:1018C000E39507A2060C9387C1933E9C2310AC00BE
:1018D00095BF850723A4F18009BC4D47EDBAB71623
:1018E00002409C4E797106D626D24AD04ECE52CCBA
:1018F00056CA22D45AC85EC662C466C26AC093E79A
:1019000057009CCEB7170140138607801842FD751B
:101910009385F50F6D8F8565938505B04D8F18C242
:101920005842C575FD156D8F91654D8F58C2D84EC3
:101930003706020037490040518FD8CE13090940BD
:101940001307101A2314E90009673107938707C0AA
:101950002316E900D843B706F1FFFD16758FB706C9
:101960000300558FD8C3EFE0FFB309651305051ACF
:10197000EFE07FB9EFE0FFB809651305851BEFE0E5
:101980009FB809651305451CB70A0020EFE0BFB7F3
:10199000938401DFEFE0FFB6EFE0DFED138ADA04B6
:1019A0001305E003EFE0BFB40144354BA54B130C26
:1019B000C004A14C8357090093F70702E5DF0355E4
:1019C00049001375F50F63196509EFE09FB3B387FD
:1019D00084002380070015C4130600029146228765
:1019E0007D141374F40FB387840083C70700E38862
:1019F000C7FEDD1793F7F70FE3F3F6FE26972300F4
:101A00000700B70800202687814713030002114E04
:101A1000896E6548130F6002930FC0049388C80451
:101A2000A142A54313042002130570028346070058
:101A3000D9E2370500201307C504B306F7001306E3
:101A400090022380C60083C6C180130BC504638641
:101A50000636EFE03FE2A9B7630C75056306950112
:101A60009307F0076311F50231D42145EFE03FA859
:101A700013050002EFE0BFA77D1421451374F40F96
:101A8000EFE0FFA605BF930705FE93F7F70F1307D7
:101A9000E005E361F7F2E36F8CF0130D1400137DA2
:101AA000FD0F26942300A400EFE07FA46A8419B7F9
:101AB00013050002CDB78346070063876600DD1675
:101AC00093F6F60F6364DE000507F5B7938B0E4DB2
:101AD000814503AB0B003A86834C0B0063890C02F3
:101AE00083460600138CF6F9137CFC0F63658801AE
:101AF000811693F6F60F6389DC00850593F5F50FE3
:101B0000910BE398E5FD15A0050B0506F1B763F60B
:101B1000FF0091472386F1802DBF93861700C6975B
:101B20002380B700328793F7F60F034607006395CB
:101B30005508130600029145834607006387C600D7
:101B4000DD1693F6F60F63E4D5000507F5B7814679
:101B500036868506B305D70083C5F5FFF5F993757D
:101B6000F60F9306C0048D8EE3D5D7FA3705002013
:101B70009305C504BE951376F60F93861700890763
:101B800093F6F60FB2972380C50093F7F70FB6854B
:101B90001308C504138515001375F50F6396A70088
:101BA000B29693F7F60F71B583480700C295050703
:101BB00023801501AA85F9BF83460B00E38806E65A
:101BC000930606FD93F6F60F63E0D3080146A94B92
:101BD000A545330B760383460700328C05079386B1
:101BE00006FDDA9613960601139B06014186135BE8
:101BF0000B01634E863983460700938606FD93F6F4
:101C0000F60FE3F8D5FC9306A004E3E4F6F0B7067C
:101C100000209386C604B385F600930B60022380F0
:101C2000750193851700938B270093F5F50FB695F3
:101C300093FBFB0F238065018D07DE96218693F7CA
:101C4000F70F2380C600DDB3630486006317A60880
:101C500005073A8B8145930BE00583460B006387AC
:101C6000C600811693F6F60F63FBDB049306D004DF
:101C70008D8EE3D0D7EA370B0020930BCB04B386CD
:101C8000FB00130C800223808601938627008507C2
:101C900093F7F70F93F6F60FBE9BB387D50023801B
:101CA000BB0093F7F70FBA8B130BCB0403CC0B00DD
:101CB000639CF6002E97E31BCCD6050785BB8505F4
:101CC000050B93F5F50F51BF938C1600DA96238020
:101CD0008601850B93F6FC0FD1BF130BF6F9137B2E
:101CE000FB0F636868039306B004E3E4F6E2B7050C
:101CF00000208D469385C50463E2F608938617009D
:101D000093F6F60FBE952380A50001161376F60F05
:101D10000DA89306F6FB93F6F60F636CD826930690
:101D2000B004E3E8F6DEB70500208D469385C504D0
:101D300063E6F60293861700BE9593F6F60F2380AE
:101D4000A500B70500209385C5048907AE96130644
:101D5000F6FB93F7F70F2380C60085B7B386F5002F
:101D600083C6E6FF6386A60293861700BE95130B13
:101D7000700293F6F60F23806501E1B7BE9583C626
:101D8000E5FF6387A6009386170093F6F60FA5BFBD
:101D9000B70500209385C504BE9583C6C5FF930B88
:101DA00070026388761F9386170023807501E545CE
:101DB00093F6F60FE3E765F989BF83460B009305B9
:101DC0005002638AB61C930560026390B60C8507C7
:101DD00093F7F70FB70600202300FB009386061F3A
:101DE00003C7060009EF138701DF158F7D17420730
:101DF00041876358F70095472386F18099B9BA96D1
:101E0000C5B71305C504EFE0AFADAA8BEFE02FAF68
:101E10002A84EFE0EFAC639BAB0083470400A297FA
:101E200083C7070091E301A02300040083450B0052
:101E30009147E387F5B6A28703C7070015EBB38682
:101E400087408506C206C1823386E600420641828B
:101E500015E203470B008147E304F7B4B306FB0028
:101E600003C60600B306F40085072380C600EDB75D
:101E7000BA97D9B73386E700034506003306B700A3
:101E80003E962300A6007D17C1B723A4E1809307E7
:101E90003002638CF60A930740026389F6089307C1
:101EA00020026393F60E8347170023A44181638ABF
:101EB000C708034747006314C708814B6397B700FF
:101EC0001385DA04EFE0CFA1AA8B370B0020130BA8
:101ED0000B1F370C0020834C0B0023226C016387FF
:101EE0000C005A85EFE0CF9F634F7505032B4C0024
:101EF00083470B00E38F07B45A85EFE06F9E81455F
:101F0000EFE02FE213050002EFE06FDE13053B0068
:101F1000EFE02FFC83C7C180E39D07B2EFE06FDEE7
:101F200083470B003E9B23226C01C9B783471700F0
:101F300023A441816395C700EFE0CFD619BED147F6
:101F400065BD814B59B7669B79B7B7070020A38061
:101F5000070037050020B707002023A44181238014
:101F600007001305051F370B0020834705002322B8
:101F7000AB00E38007AE0D0523A4A180EFF0CFA94D
:101F800083C7C180FDD3F1B4EFF00FA9D9B489475D
:101F900051B6D14741B6B250225492540259F24937
:101FA000624AD24A424BB24B224C924C024D0145FE
:101FB0004561828089679387E78D97F1FF1F938141
:101FC0006184173100201301E1037D45731005BCC6
:101FD00013058008732005308D45739045801305E7
:101FE00040004D8D73105530739017340967B70753
:101FF0000020B706002013078756938707009386B3
:10200000060063EAD702B70700209387070013870B
:1020100001E463E7E702B7270240094798C3B7170F
:10202000024023A2070037F700E0954614C371472A
:1020300098CF730020301043110790C39107D1B798
:1020400023A007009107F1B7A6010000800100005E
:102050009E01000076010000920100008A0100004C
:10206000640200006C020000320300003203000032
:102070008C02000032030000320300003203000033
:10208000320300003203000032030000320300007C
:1020900096020000C2020000D4020000F00200001C
:1020A000320300003203000032030000320300005C
:1020B0003E020000720200004C494E453A0000000A
:1020C000594F5520545950453A200000980C0000B3
:1020D000E00C0000AC0C0000E60C0000CA0D000093
:1020E000E00C0000E00C0000E00C0000AA0E000074
:1020F000C00E00002A00000040280000293A00001D
:10210000B4120000F41200005C1300009E130000E3
:10211000BA170000BA170000881400004615000026
:102120005E1500007E120000BE1700000A170000B6
:10213000A01500000A170000C6150000EC160000EC
:10214000BA170000D2180000BA170000BA17000032
:10215000BA170000BA170000BA170000BA1700003B
:10216000BA170000BA170000BA170000BA1700002B
:10217000BA170000BA17000094150000BA17000043
:10218000BA170000BA170000DA180000DA180000C9
:10219000DA180000BA170000BA170000881500000E
:1021A000544F594F5348494B492054494E592042A6
:1021B0004153494300000000583033352066756EA6
:1021C000000000002045444954494F4E00000000E3
:1021D0004F4B00004465766973696F6E2062792009
:1021E0007A65726F000000004F766572666C6F77DB
:1021F00000000000537562736372697074206F751C
:1022000074206F662072616E6765000049636F64B9
:1022100065206275666665722066756C6C000000EC
:102220004C6973742066756C6C000000474F535501
:102230004220746F6F206D616E79206E65737465D6
:102240006400000052455455524E20737461636B14
:1022500020756E646572666C6F770000464F522081
:10226000746F6F206D616E79206E657374656400A4
:102270004E45585420776974686F757420464F52E4
:10228000000000004E45585420776974686F7574DB
:1022900020636F756E746572000000004E455854DF
:1022A000206D69736D6174636820464F52000000B1
:1022B000464F5220776974686F7574207661726931
:1022C00061626C6500000000464F522077697468B7
:1022D0006F757420544F00004C4554207769746822
:1022E0006F7574207661726961626C650000000030
:1022F000494620776974686F757420636F6E6469EE
:1023000074696F6E00000000556E646566696E65E5
:1023100064206C696E65206E756D626572000000E8
:10232000272827206F72202729272065787065636A
:1023300074656400273D2720657870656374656463
:1023400000000000496C6C6567616C20636F6D6D07
:10235000616E640053796E746178206572726F7279
:1023600000000000496E7465726E616C20657272C7
:102370006F72000041626F7274206279205B455376
:10238000435D0000505053204572726F7200000090
:10239000474F544F00000000474F53554200000084
:1023A00052455455524E0000464F5200535445502A
:1023B000000000004E45585400000000494600004F
:1023C00052454D0053544F5000000000494E5055A7
:1023D000540000005052494E540000004C45540037
:1023E0003F000000505053004C4544002C000000BA
:1023F0003B0000002D0000002B0000002F0000001B
:1024000028000000290000003E3D000023000000DD
:102410003E0000003D0000003C3D00003C0000008C
:1024200040000000524E44004142530053495A4577
:10243000000000004C4953540000000052554E006B
:102440004E45570053595354454D0000D0210000CC
:10245000D4210000E8210000F42100000C2200003B
:10246000202200002C220000442200005C220000F8
:1024700070220000842200009C220000B022000094
:10248000C8220000D8220000F0220000082300002B
:1024900020230000342300004423000054230000C4
:1024A0006423000074230000842300001213141519
:1024B000161718191A1B1C1D1011290002091012D9
:1024C000131415161718191A1B1C1D1E1F20210086
:1024D0009023000098230000A0230000A823000000
:1024E000D4220000AC230000B4230000BC23000071
:1024F000C0230000C4230000CC230000D42300002C
:10250000DC230000E0230000E4230000E8230000B7
:10251000EC230000F0230000F4230000F823000067
:10252000F4200000FC23000000240000042400002C
:10253000082400000C2400001024000014240000D3
:10254000182400001C240000202400002424000083
:10255000282400002C240000342400003C24000027
:082560004024000044240000A7
:00000001FF
